:020000040800F2
:10000000F00600204D020008DD1E00086D170008F4
:10001000D91E0008F903000855220008000000005E
:10002000000000000000000000000000911F000818
:100030003504000800000000E11E0008951F0008BC
:1000400067020008670200086702000867020008EC
:1000500067020008670200086702000867020008DC
:1000600067020008670200086702000867020008CC
:1000700067020008670200086702000867020008BC
:1000800067020008670200086702000867020008AC
:10009000670200086702000867020008670200089C
:1000A000670200086702000867020008670200088C
:1000B000670200086702000867020008670200087C
:1000C000670200086702000867020008670200086C
:1000D000670200084922000867020008670200085A
:1000E000670200086702000867020008670200084C
:1000F000670200086702000867020008670200083C
:10010000670200086702000867020008670200082B
:10011000670200086702000867020008670200081B
:10012000670200086702000867020008670200080B
:1001300067020008670200086702000867020008FB
:1001400067020008670200086702000867020008EB
:1001500067020008670200086702000867020008DB
:1001600067020008670200086702000867020008CB
:10017000670200086702000867020008000000002C
:1001800067020008670200086702000867020008AB
:10019000670200086702000867020008670200089B
:1001A00067020008670200086702000800F002F812
:1001B00000F03CF80AA090E8000C82448344AAF1C5
:1001C0000107DA4501D100F031F8AFF2090EBAE8C3
:1001D0000F0013F0010F18BFFB1A43F0010318477B
:1001E0003C2400005C240000103A24BF78C878C189
:1001F000FAD8520724BF30C830C144BF04680C602D
:10020000704700000023002400250026103A28BF74
:1002100078C1FBD8520728BF30C148BF0B60704778
:100220001FB502F0D9F91FBD10B510BD00F0A9F837
:100230001146FFF7F5FF02F00FF800F0C7F803B41E
:10024000FFF7F2FF03BC00F0CFF800000948804739
:1002500009480047FEE7FEE7FEE7FEE7FEE7FEE7A8
:10026000FEE7FEE7FEE7FEE704480549054A064BC0
:100270007047000045200008AD010008F000002094
:10028000F0060020F0020020F002002053EA020CE9
:1002900000F069802DE9F04B4FF00006002B1FBFE6
:1002A000B3FA83F503FA05F424FA05F65E4012BFAB
:1002B0001643B2FA82F502FA05F4C5F120051EBF15
:1002C00022FA05FC44EA0C04203556EA044C4FEAB5
:1002D000144418BF641C4FF000084FF0000990420E
:1002E00071EB030C39D3002919BFB1FA81F701FA78
:1002F00007F6B0FA80F700FA07F6C7F120071EBF2D
:1003000020FA07FC46EA0C062037B6FBF4FCA7EB04
:100310000507103F07F01F0BCBF120062CFA06F65D
:100320000CFA0BFB44BFB3460026202FA4BF5E4649
:100330004FF0000B5BEA060C08BF4FF0010B19EB06
:100340000B0948EB0608ABFB027C06FB02CC0BFB5F
:1003500003CCC01B71EB0C01C1E70B4602464146C2
:100360004846BDE8F08B13B5084318BF4FF0FF3087
:100370000146AFF30080BDE81C40704770477047EE
:100380007047754600F02CF8AE46050069465346A6
:1003900020F00700854618B020B5FFF765FFBDE8DF
:1003A00020404FF000064FF000074FF000084FF0DC
:1003B000000BAC46ACE8C009ACE8C009ACE8C00929
:1003C000ACE8C00921F007018D46704710B504461E
:1003D000AFF300802046BDE81040FFF730BF0000BB
:1003E000004870471800002001491820ABBEFEE706
:1003F0002600020070470000FEE700000A787E2A0F
:1004000016D14A787E2A13D14A7E0D2A10D18A7ECF
:100410000A2A0DD10A7982420AD1087D4A7D897D56
:1004200010400840013818BF01204000704700BF4D
:100430000120704770470000EFF3108072B600BFD4
:10044000FEE7000070B5866D044600F055F994F89B
:10045000351002292ED105462068216C026822F051
:1004600016020260426922F08002426109B9A16C61
:1004700019B1016821F008010160016821F0010152
:1004800001600068C00708D000F036F9401B05285D
:1004900018D820680068C007F6D1E06D3F2101FA46
:1004A00000F0B060012084F835000020002184F8BD
:1004B000341070BD802060650120002184F8341064
:1004C00070BD00BF20206065032084F83500002146
:1004D00084F8341070BD000090F83510022909D15D
:1004E000052180F835100068016821F001010160E4
:1004F000002070478021416501207047B0B5044657
:1005000000F0FAF8054640F20000C2F20000007860
:10051000611C18BF044400BF00F0EEF8401BA0426D
:10052000FAD3B0BD2DE9F04F82B000F13E4242F265
:10053000004502F1FF77C4F202050A224FEAB7260E
:10054000A84208BF0922092E38BF4FEAB7224FF050
:10055000010A002400274FF00008009208E000BFC5
:10056000023708F10108202F04F1040400F0B480E0
:100570000E680AFA08F916EA090FF1D0D1F804A0BA
:100580000AF0030BABF10106012E17D8032286688F
:1005900002FA07FECA6826EA0E06BA4032438260B3
:1005A0004268CAF3001522EA090205FA08F54FEA83
:1005B000480C6FEA0E062A4342600BE00322BA4061
:1005C000D643BBF1030FBC4604D1BC464FF0030B2E
:1005D00022E000BFC2688D68324005FA0CF52A435C
:1005E000BBF1020FC26017D16FF0030202EA58029A
:1005F000024404F01C030F25D2F820E005FA03FAA8
:100600000D692EEA0A0E05FA03F343EA0E0313629C
:10061000D1F804A00AF0030B02680BFA0CF3324085
:100620001A431AF4403F4FF0010A026098D00022AA
:1006300043F644030192C4F202031A6843F6004EE3
:1006400042F480421A601A68C4F2010E02F4804239
:100650000192019A28F003024FF6084C7244CFF63B
:10066000FF7C52F80C3004F00C060F25B540AB436C
:10067000009D05FA06F6334342F80C30DEF80820F8
:100680004B6842EA090643F60C4CDD0258BF22EAE9
:100690000906CEF80860C4F2010CDCF800209D02C7
:1006A00042EA090658BF22EA0906CCF80060DEF8E3
:1006B00004209D0342EA090658BF22EA0906CEF843
:1006C0000460DEF80020DB0342EA090658BF22EA94
:1006D0000906CEF8006043E702B0BDE8F08F0000E5
:1006E0000069084018BF012070470000002A08BFB9
:1006F000090481617047000040F2E800C2F2000086
:100700000068704740F2000040F2E801C2F20000C9
:10071000C2F2000100780A681044086070470000C7
:1007200080B543F60040C4F20200016841F4007154
:100730000160016841F480610160016841F48071E9
:100740000160032000F084F80F2000F005F800F0AD
:1007500027F8002080BD000070B540F20006C2F20C
:10076000000640F214013278C2F200014FF47A73AD
:100770000968B3FBF2F20446B1FBF2F1084600F05F
:1007800041FB0F2C4FF0010508D838B94FF0FF306E
:1007900021460022002500F02FF87460284670BD25
:1007A00082B0002043F640010190C4F202014A6881
:1007B00042F480424A604A6802F480420192019AFF
:1007C0000090086840F080500860086800F0805091
:1007D0000090009802B07047002848BF704700F0B2
:1007E0001F01012202FA01F14EF200124009CEF27D
:1007F000000242F82010704710B54EF60C5CCEF2A5
:10080000000CDCF80030C3F3022E8EF00704042C39
:1008100028BF0424BEF103034FF0FF3E0EFA04F498
:1008200038BF0023A14399400EFA03F39A431143C2
:1008300000F00F02043A624409010C3200F16043F7
:10084000B0F1FF3FC8BF03F56442117010BD000056
:100850004EF60C51CEF200010A684FF6FF031A4023
:1008600060F30A2242F0806040F0FD70086070473B
:100870002DE9F041002800F08B8043F60808C4F20F
:1008800002080446D8F8F8030D4600F00F0088422D
:1008900007D288F8F853D8F8F80300F00F00A84200
:1008A00076D12068810717D5410705D5D8F8001003
:1008B00041F4E051C8F80010010705D5D8F8001040
:1008C00041F46041C8F80010D8F80010A26821F087
:1008D000F0011143C8F80010C0073FD1D8F8F80361
:1008E00000F00F00A84207D988F8F853D8F8F803A9
:1008F00000F00F00A8424BD12068410707D5D8F877
:100900000010E26821F4E0511143C8F8001000071C
:1009100008D5D8F80000216920F4604040EAC10001
:10092000C8F8000000F07CF8D8F8001042F202622B
:10093000C1F30311C0F60002515C40F2140220FA28
:1009400001F140F20400C2F200000068C2F20002AD
:100950001160FFF701FF0020BDE8F0816068811E93
:10096000022907D258F8081C89015CBF0120BDE8A4
:10097000F08111E0012807D158F8081C89035CBFF9
:100980000120BDE8F08107E058F8081C890703D46E
:100990000120BDE8F08100BFD8F8001021F003016C
:1009A0000843C8F80000FFF7A7FE064641F2883763
:1009B000D8F80000616800F00C00B0EB810F8DD01A
:1009C000FFF79AFE801BB842F2D90320BDE8F08100
:1009D00040F2140043F60801C2F20000C4F2020122
:1009E0000068096842F21262C1F38221C0F6000277
:1009F000515CC8407047000040F2140043F6080103
:100A0000C2F20000C4F202010068096842F21262F8
:100A1000C1F34231C0F60002515CC840704700008B
:100A200010B543F60404C4F20204606800F00C0040
:100A300008280BD0042819BF42F20040C0F2F4008D
:100A400047F64000C0F27D1010BD00BF206821684D
:100A50002368490247F64001C0F27D1100F03F02D1
:100A6000C3F388105CBF42F20041C0F2F401A1FB65
:100A700000010023FFF70AFC21680222C1F30141B3
:100A800002EB4101B0FBF1F010BD00002DE9F04197
:100A900082B000286AD00446007843F60006C007FA
:100AA000C4F202060BD0B06800F00C00042840F03D
:100AB000A1803068800302D56068002856D0207875
:100AC00080071AD5B06810F00C0F09D0B06800F09C
:100AD0000C00082840F0A8807068400200F1A48053
:100AE0003068800702D5E06801283FD1306821696D
:100AF00020F0F80040EAC10030602078000739D4C7
:100B0000207840074ED4A5695DB3B06800F00C00B2
:100B1000082840F0BD80012D28D07068E16900F4FC
:100B200080028A4222D1216A00F03F028A421DD10E
:100B300047F6C071626A0140B1EB821F16D1A26A0A
:100B40000023CFF6FF7303EBC23200F440316FF3A2
:100B50000F0291420AD1E16A00F07060B0EB016FC0
:100B600004D1002002B0BDE8F08100BF012002B036
:100B7000BDE8F0816069002840F20000C4F247201F
:100B800076D00121C0F8801EFFF7B6FD054600BFF4
:100B9000706F8007B4D4FFF7AFFD401B0228F7D970
:100BA000DDE000BF306C10F080580AD100200190C9
:100BB000306C40F080503064306C00F08050019018
:100BC000019847F20007C4F200073868C00541D415
:100BD000386840F480703860FFF78EFD054600BF2E
:100BE0003868C00536D4FFF787FD401B0228F7D9C7
:100BF000B5E000BFB06800F00C00082803D17068B1
:100C000040023FF556AF6068B0F5803F07D0B0F5C1
:100C1000A02F40F08D80306840F480203060306834
:100C200040F4803030608DE0E068002852D0002031
:100C3000C4F2472001210160FFF75EFD054600BFB9
:100C4000306880073FF552AFFFF756FD401B022882
:100C5000F6D984E0A068012805D005284ED1306F70
:100C600040F004003067306F40F0010030674FE023
:100C70000021C0F8801EFFF73FFD0546706F80071A
:100C80007FF53EAFFFF738FD401B0228F6D966E03E
:100C90000027C4F2472700203866FFF72DFD022DFC
:100CA00005460BD1306880015ED5FFF725FD401B5E
:100CB00002284FF00300F5D954E700BF30688001E7
:100CC0007FF54FAFFFF718FD401B02284FF00300E0
:100CD000F4D947E70020C4F2472000210160FFF764
:100CE0000BFD0546306880077FF507AFFFF704FD71
:100CF000401B02284FF00300F4D933E7316F00287E
:100D000021F001013167316F21F0040131674DD0CD
:100D1000FFF7F2FC054641F2883700BF306F8007CD
:100D200056D4FFF7E9FC401BB842F7D917E000BFE3
:100D30003168002821F480313160316821F480214C
:100D400031604FD0FFF7D8FC054600BF3068800304
:100D50003FF5B5AEFFF7D0FC401B6428F6D9032061
:100D600002B0BDE8F08100BF04F11C052FCD08439F
:100D70000021CFF6FF7140EA821001EBC3316FF31F
:100D80000F0140EA05600843706001203866FFF7F4
:100D9000B3FC0446306880013FF5E3AEFFF7ACFCDE
:100DA000001B02284FF00300F4D9DBE6FFF7A4FC98
:100DB000054641F2883700BF306F800708D5FFF73E
:100DC0009BFC401BB8424FF00300F5D9CAE600BFB8
:100DD000B8F1000F7FF497AE306C20F08050306493
:100DE00091E600BFFFF788FC054600BF306880032E
:100DF0007FF565AEFFF780FC401B64284FF00300D1
:100E0000F4D9AFE6411E0020B0EB116F1CBF0120EA
:100E100070474EF21002CEF2000251604EF623519E
:100E2000CEF20001F0230B70072190601160704733
:100E30007047000070470000B0B582B004460068FB
:100E40000168C368426901F02F05202D03F02005D9
:100E500006D12DB1204602B0BDE8B04001F002B984
:100E60005FEA017C1EBF02F0010E03F4907212EBE8
:100E70000E0255D1226B012A05D111F0100218BFC4
:100E800013F0100236D10A0622D513F080021FD0CB
:100E900094F83D10212941D1A168B1F5805F03D1BB
:100EA0002169002900F06C82216A4A1C22620978BB
:100EB0004160E18C01390A04E1842FD1C16821F03D
:100EC0008001C160C16841F04001C16002B0B0BDA5
:100ED000490623D513F0400120D0C16821F040011C
:100EE000C1602021204684F83D1002B0BDE8B0402A
:100EF00000F03ABC00210191016801914168019123
:100F000001994169490600F18B80A18DE28DE38D45
:100F1000002B1CBF891A5FEA01420CD102B0B0BDA0
:100F2000CA0718BF13F4807240F032814A0700F1FB
:100F300035813AE1206850E8030F226820F4907070
:100F400042E80303DBB1206850E8030F226820F475
:100F5000907042E8030393B1206850E8030F2268C1
:100F600020F4907042E803034BB1206850E8030F6F
:100F7000226820F4907042E80303002BDAD1206845
:100F800050E8050F226820F0010042E80503DBB1BC
:100F9000206850E8050F226820F0010042E80503B0
:100FA00093B1206850E8050F226820F0010042E864
:100FB00005034BB1206850E8050F226820F00100BE
:100FC00042E80503002BDAD1202084F83E000020FF
:100FD0002063206850E8030F226820F0100042E8E8
:100FE0000303DBB1206850E8030F226820F01000F3
:100FF00042E8030393B1206850E8030F226820F011
:10100000100042E803034BB1206850E8030F226848
:1010100020F0100042E80303002BDAD189B2B0E0DF
:10102000A26B11684B689DB2002D3FF477AFA18D84
:101030008D42BFF473AFE385D269B2F5807F00F0D3
:101040009D8050E8030F216820F4807041E803027E
:10105000E2B1206850E8030F216820F4807041E875
:1010600003029AB1206850E8030F216820F48070D1
:1010700041E8030252B1206850E8030F216820F4D0
:10108000807041E803020AB12068DAE7206850E87E
:10109000050F216820F0010041E80502DAB120685F
:1010A00050E8050F216820F0010041E8050292B1E7
:1010B000206850E8050F216820F0010041E8050292
:1010C0004AB1206850E8050F216820F0010041E88E
:1010D0000502002ADAD1206850E8050F216820F0C7
:1010E000400041E80502DAB1206850E8050F2168A8
:1010F00020F0400041E8050292B1206850E8050F59
:10110000216820F0400041E805024AB1206850E81B
:10111000050F216820F0400041E80502002ADAD1DD
:10112000202084F83E0000202063206850E8030F50
:10113000216820F0100041E80302DAB1206850E88D
:10114000030F216820F0100041E8030292B12068EB
:1011500050E8030F216820F0100041E803024AB173
:10116000206850E8030F216820F0100041E80302D6
:10117000002ADAD1A06BFFF765F9A18DE08D081A7E
:1011800081B2204602B0BDE8B040FFF751BE00BFBB
:10119000226C42F0010222644A0706D5BEF1000F1C
:1011A00003D0226C42F0020222648A0706D5BEF107
:1011B000000F03D0226C42F004022264BCF1000F45
:1011C00006D555EA0E0203D0226C42F008022264D2
:1011D000226C002A3FF4A2AE11F0200118BF002DAE
:1011E00003D0204600F03EFF20684169226C01F0E8
:1011F000400102F00802891800F0A28050E8030FB5
:10120000216820F4907041E80302C2B3206850E8DE
:10121000030F216820F4907041E803027AB320683C
:1012200050E8030F216820F4907041E8030232B3C4
:10123000206850E8030F216820F4907041E8030211
:10124000EAB12068DAE700BF206850E8050F21689E
:1012500020F0010041E80502DAB1206850E8050FEE
:10126000216820F0010041E8050292B1206850E8B1
:10127000050F216820F0010041E805024AB120680D
:1012800050E8050F216820F0010041E80502002A1E
:10129000DAD1206B012824D1206850E8030F21689F
:1012A00020F0100041E80302DAB1206850E8030F93
:1012B000216820F0100041E8030292B1206850E854
:1012C000030F216820F0100041E803024AB12068B2
:1012D00050E8030F216820F0100041E80302002AC3
:1012E000DAD1202084F83E00002020632068416984
:1012F00049063FD550E8050F216820F0400041E83D
:1013000005022AB3206850E8050F216820F040004C
:1013100041E80502E2B1206850E8050F216820F09D
:10132000400041E805029AB1206850E8050F2168A5
:1013300020F0400041E8050252B12068DAE700BF22
:101340002046FFF777FD0020206402B0B0BD00BF4B
:10135000A06B78B142F25901C0F600010165FFF7B8
:10136000BBF800283FF4DAADA06B016D02B0BDE818
:10137000B0400847204602B0BDE8B040FFF75ABD74
:10138000216A31F8022B6FF35F224260216290E5FF
:10139000002804BF0120704710B5044690F83D00B6
:1013A00028B9002084F83C00204600F021F82420D1
:1013B00084F83D002068C16821F40051C1602046D6
:1013C00000F0D0FE2068016921F49041016141697B
:1013D00021F02A014161C16841F40051C16000203F
:1013E0002021206484F83D1084F83E1010BD0000D8
:1013F00080B586B0016841F20000C4F2010081426C
:1014000002D006B080BD00BF002143F6300201913A
:10141000C4F20202536900F5704043F010035361B7
:10142000536903F010030193019B0191136843F08A
:1014300001031360126802F001020192019A4FF455
:10144000C06201920222CDE9022103210491072109
:10145000059101A9FFF766F8252000210022FFF77A
:10146000CBF92520FFF7B8F906B080BD90F83E30E3
:10147000202B0BD100294FF0010318BF002A01D106
:101480001846704790F83C30012B01D1022070477C
:1014900000230363816222218285C285036480F870
:1014A0003E100269016880F83C301AB1C86840F407
:1014B0008070C8604869002340F001004861C86836
:1014C00040F02000C86018467047000040F27800E5
:1014D000C2F2000000F1100140F2A400C2F20000CC
:1014E0001B22FFF7C3BF00002DE9F04381B0044683
:1014F00090F83D0020280DD10F4600294FF0010043
:1015000000F0DD801646002A00F0D98094F83C00F7
:10151000012803D1022001B0BDE8F083012084F846
:101520003C004FF0000921201D46C4F8409084F88B
:101530003D00FFF7E1F8A684E684A1680646B1F510
:10154000805F07D1206900281CBF38464F46B84647
:10155000074601E04FF0000884F83C90E18C2068D9
:10156000002900F08B8005F101090AE047B317F864
:10157000011B4160E18C0139E184E18C002900F01C
:101580007D8001680906F1D4B9F1000F0AD0EDB1F0
:10159000FFF7B2F8801BA84218D820680168090636
:1015A000F6D5E3E701680906E0D4016809065CBFE7
:1015B00001685FEA0161D9D401680906F2D5D5E76F
:1015C00038F8021B00276FF35F21D2E7206850E84C
:1015D000030F216820F4D07041E80302BAB32068F9
:1015E00050E8030F216820F4D07041E8030272B381
:1015F000206850E8030F216820F4D07041E803020E
:101600002AB3206850E8030F216820F4D07041E825
:101610000302002ADAD11AE0206850E8050F216899
:1016200020F0010041E80502DAB1206850E8050F1A
:10163000216820F0010041E8050292B1206850E8DD
:10164000050F216820F0010041E805024AB1206839
:1016500050E8050F216820F0010041E80502002A4A
:10166000DAD1202084F83D0084F83E00002084F880
:101670003C00032001B0BDE8F08300BF01684906CB
:1016800019D4FDB1691C0DD10168490613D4016854
:1016900049065CBF01685FEA41610CD401684906F4
:1016A000F2D508E0FFF728F8801BA8420AD8206886
:1016B00000684006F6D5202084F83D00002001B0E7
:1016C000BDE8F083206850E8030F216820F4D07053
:1016D00041E80302E2B3206850E8030F216820F4D8
:1016E000D07041E803029AB3206850E8030F2168E4
:1016F00020F4D07041E8030252B3206850E8030F91
:10170000216820F4D07041E80302002ADAD11FE0FA
:10171000206850E8050F216820F0010041E805022B
:10172000002A9ED0206850E8050F216820F00100B3
:1017300041E80502002A3FF494AF206850E8050F05
:10174000216820F0010041E80502002A3FF489AF3A
:10175000206850E8050F216820F0010041E80502EB
:10176000002AD5D17DE7000070470000FEE70000A9
:10177000F0B581B041F60044C4F202040F460646BB
:101780000D0A20464FF480710122FEF7AFFF20467C
:1017900080210122FEF7AAFF00BF00BF00BF00BFEB
:1017A00020464FF48071002200BFFEF79FFF00BF6C
:1017B00000BF00BF00BF20468021002200BFFEF70F
:1017C00095FF304600F060FA20464FF48071012208
:1017D000FEF78CFF00BF20468021012200BFFEF7EC
:1017E00085FF00BF00BF00BF00BF20464FF48071DF
:1017F00000BFFEF775FF20468021002200BFFEF7E4
:1018000075FF062000F040FA20464FF48071012257
:10181000FEF76CFF00BF20468021012200BFFEF7CB
:1018200065FF00BF00BF00BF00BF20464FF48071BE
:1018300000BFFEF755FF20468021002200BFFEF7C3
:1018400055FF002000F020FA20464FF4807101225D
:10185000FEF74CFF00BF20468021012200BFFEF7AB
:1018600045FF00BF00BF00BF00BF20464FF480719E
:1018700000BFFEF735FF20468021002200BFFEF7A3
:1018800035FF20464FF480710022FEF72FFF2046DF
:1018900080210122FEF72AFF00BF00BF00BF00BF6A
:1018A00020464FF48071012200BFFEF71FFF00BFEA
:1018B00000BF00BF00BF20468021002200BFFEF70E
:1018C00015FF20464FF480710122FEF70FFF2046DE
:1018D00080210122FEF70AFF00BF00BF00BF00BF4A
:1018E00020464FF48071002200BFFEF7FFFE00BFCC
:1018F00000BF00BF00BF20468021002200BFFEF7CE
:10190000F5FE304600F0C0F920464FF48071012208
:10191000FEF7ECFE00BF20468021012200BFFEF74B
:10192000E5FE00BF00BF00BF00BF20464FF480713E
:1019300000BFFEF7D5FE20468021002200BFFEF743
:10194000D5FE072000F0A0F920464FF48071012257
:10195000FEF7CCFE00BF20468021012200BFFEF72B
:10196000C5FE00BF00BF00BF00BF20464FF480711E
:1019700000BFFEF7B5FE20468021002200BFFEF723
:10198000B5FE002000F080F920464FF4807101225E
:10199000FEF7ACFE00BF20468021012200BFFEF70B
:1019A000A5FE00BF00BF00BF00BF20464FF48071FE
:1019B00000BFFEF795FE20468021002200BFFEF703
:1019C00095FE20464FF480710022FEF78FFE2046E0
:1019D00080210122FEF78AFE00BF00BF00BF00BFCA
:1019E00020464FF48071012200BFFEF77FFE00BF4A
:1019F00000BF00BF00BF20468021002200BFFEF7CD
:101A000075FE20464FF480710122FEF76FFE2046DE
:101A100080210122FEF76AFE00BF00BF00BF00BFA9
:101A200020464FF48071002200BFFEF75FFE00BF2A
:101A300000BF00BF00BF20468021002200BFFEF78C
:101A400055FE304600F020F920464FF48071012207
:101A5000FEF74CFE00BF20468021012200BFFEF7AA
:101A600045FE00BF00BF00BF00BF20464FF480719D
:101A700000BFFEF735FE20468021002200BFFEF7A2
:101A800035FE022000F000F920464FF4807101225B
:101A9000FEF72CFE00BF20468021012200BFFEF78A
:101AA00025FE00BF00BF00BF00BF20464FF480717D
:101AB00000BFFEF715FE20468021002200BFFEF782
:101AC00015FEF8B200F0E0F820464FF480710122D4
:101AD000FEF70CFE00BF20468021012200BFFEF76A
:101AE00005FE00BF00BF00BF00BF20464FF480715D
:101AF00000BFFEF7F5FD20468021002200BFFEF763
:101B0000F5FD20464FF480710022FEF7EFFD2046E0
:101B100080210122FEF7EAFD00BF00BF00BF00BF29
:101B200020464FF48071012200BFFEF7DFFD00BFA9
:101B300000BF00BF00BF20468021002200BFFEF78B
:101B4000D5FD20464FF480710122FEF7CFFD2046DF
:101B500080210122FEF7CAFD00BF00BF00BF00BF09
:101B600020464FF48071002200BFFEF7BFFD00BF8A
:101B700000BF00BF00BF20468021002200BFFEF74B
:101B8000B5FD304600F080F820464FF48071012208
:101B9000FEF7ACFD00BF20468021012200BFFEF70A
:101BA000A5FD00BF00BF00BF00BF20464FF48071FD
:101BB00000BFFEF795FD20468021002200BFFEF702
:101BC00095FD032000F060F820464FF4807101225B
:101BD000FEF78CFD00BF20468021012200BFFEF7EA
:101BE00085FD00BF00BF00BF00BF20464FF48071DD
:101BF00000BFFEF775FD20468021002200BFFEF7E2
:101C000075FD284600F040F820464FF4807101220F
:101C1000FEF76CFD00BF20468021012200BFFEF7C9
:101C200065FD00BF00BF00BF00BF20464FF48071BC
:101C300000BFFEF755FD20468021002200BFFEF7C1
:101C400055FD20464FF480710022FEF74FFD2046DF
:101C500080210122FEF74AFD00BF00BF00BF00BF88
:101C600020464FF48071012200BFFEF73FFD00BF08
:101C700000BF00BF00BF20468021002200BF01B08E
:101C8000BDE8F040FEF732BDB0B541F60044C4F205
:101C900002040546C20920464FF48071FEF726FD76
:101CA000204680210122FEF721FD00BF00BF00BFBA
:101CB00000BF20468021002200BFFEF717FDC5F3BC
:101CC000801220464FF48071FEF710FD20468021DF
:101CD0000122FEF70BFD00BF00BF00BF00BF204682
:101CE0008021002200BFFEF701FDC5F3401220460F
:101CF0004FF48071FEF7FAFC204680210122FEF7A6
:101D0000F5FC00BF00BF00BF00BF204680210022BD
:101D100000BFFEF7EBFCC5F3001220464FF48071C4
:101D2000FEF7E4FC204680210122FEF7DFFC00BF25
:101D300000BF00BF00BF20468021002200BFFEF789
:101D4000D5FCC5F3C00220464FF48071FEF7CEFCEF
:101D5000204680210122FEF7C9FC00BF00BF00BF62
:101D600000BF20468021002200BFFEF7BFFCC5F364
:101D7000800220464FF48071FEF7B8FC2046802197
:101D80000122FEF7B3FC00BF00BF00BF00BF20462A
:101D90008021002200BFFEF7A9FCC5F340022046C7
:101DA0004FF48071FEF7A2FC204680210122FEF74D
:101DB0009DFC00BF00BF00BF00BF20468021002265
:101DC00000BFFEF793FC05F0010220464FF480713E
:101DD000FEF78CFC204680210122FEF787FC00BF25
:101DE00000BF00BF00BF20468021002200BFBDE829
:101DF000B040FEF77BBC00002DE9F04387B0002720
:101E000043F6300006970197C4F20200016840F2E1
:101E1000000941F0040101600168C4F2020901F007
:101E20000401019101990197016809F5E05541F01C
:101E3000800101600168002201F080010191019997
:101E4000019701684FF4C07641F00101016000681C
:101E50004FF4C07100F00100019001982846FEF790
:101E600045FC48464FF4006100224FF40068FEF73D
:101E70003DFC029602AE012428463146CDE90347D7
:101E80000597FEF74FFB48463146CDE90284CDE980
:101E90000477FEF747FB07B0BDE8F08380B540F25A
:101EA000A40041F20001C2F20000C4F201010023CB
:101EB0004FF00C0C4FF4E13280E80E00C0E9033320
:101EC000C0E905C3C361FFF763FA002808BF80BDFE
:101ED000BDE88040FEF7B0BAFEE70000FEE7000074
:101EE0007047000070B506467E200D460C0A00F0D3
:101EF0002FF87E2000F02CF80E2000F029F80020AA
:101F000000F026F8FF2000F023F8FF2000F020F872
:101F1000304600F01DF8002000F01AF8012000F013
:101F200017F8002000F014F8E8B200F011F820468D
:101F300000F00EF80C2000F00BF8002000F008F87C
:101F40000D2000F005F80A20BDE87040AFF30080D6
:101F500010B582B00024C4F202048DF807002046B8
:101F60004FF400610122FEF7C1FB40F2A400C2F26F
:101F700000000DF107010122FF23FFF7B5FA20460B
:101F80004FF400610022FEF7B1FB02B010BD00006B
:101F900070470000FEF7B6BBB0B592B0002443F620
:101FA0004000CDE90A44CDE908440594CDE9034455
:101FB000CDE901440094C4F202000168012241F01D
:101FC000805101600068022500F080500090009868
:101FD00047F200000094C4F20000016862F38F3100
:101FE0000160006800F44040009000984FF4803099
:101FF00007904FF480000D9019200E909020CDE9AD
:102000000F050420119006A806920C95FEF73EFDE0
:1020100020B1EFF3108072B6FEE700BF0F20CDE9CC
:102020000105B020CDE9030401A800210594FEF7C5
:102030001FFC28B1EFF3108072B600BFFEE700BFAF
:1020400012B0B0BD4EF68850CEF20000016841F4E7
:102050007001016070470000806B0021C185C18460
:10206000FEF7E8BE81B090F83E10222920D18368A7
:10207000B3F5805F08D10169002965D000F128011E
:102080000A6803685B680AE0014651F8282F13B913
:102090000369002BF5D003685B6803F07F031370BE
:1020A0000A6801320A60C18D01390A04C18501D074
:1020B00001B070470168CA6822F02002CA60CA688D
:1020C00022F48072CA604A6922F001024A61202229
:1020D00080F83E20026B012A40D10022026300BF3B
:1020E00051E8031F026821F0100142E80313016860
:1020F000DBB151E8031F026821F0100142E803132D
:10210000016893B151E8031F026821F0100142E811
:10211000031301684BB151E8031F026821F010015D
:1021200042E803130168002BDAD10A68D20606D50B
:10213000002200920A680092496800910099818DFE
:1021400001B0FEF775BE00BF0168826A49686FF38F
:102150005F2122F8021B8262A5E700BF01B0FFF7F2
:10216000B5B9000010B504460068D4E902C223697D
:10217000016921F4405111430161626943EA0C0194
:10218000E3691143C268194349F20C639A4311434E
:10219000C1604169A26921F4407141F200431143D9
:1021A00040F48062C4F201039A42416102D1FEF719
:1021B00023FC01E0FEF70CFCE16963681922B1F52C
:1021C000004FA0FB02011FD15A00DB0FFEF75EF8A3
:1021D00048F21F51C5F2EB11A0FB01235A096FF021
:1021E000630302FB0300322303EBC000A0FB0101E9
:1021F0004FF4F87000EA111000EB0210C1F3421125
:1022000008442168886010BD9A009B0FFEF73EF8D5
:1022100048F21F51C5F2EB11A0FB01235A096FF0E0
:10222000630302FB0300322303EB0010A0FB010158
:10223000F02000EA511000EB0210C1F343110844F2
:102240002168886010BD000040F2A400C2F20000C6
:10225000FEF7F2BDFEE700004CF6F239FEF760FA39
:10226000FFF79AFEFFF7C8FDFFF718FE40F20808D7
:10227000C2F2000840F27806B8F80010C2F2000678
:10228000002740203770FFF773FA344614F8100B1C
:1022900038F810104220FFF76BFA40F2A400C2F2A7
:1022A000000021461B22FFF7E1F801254CF6F21A47
:1022B0004CF6723B12E000BF38F810104020FFF7D8
:1022C00057FA307838F810104220FFF751FA4FF4DF
:1022D0007A70FEF713F9B0880130B080B07AA6F8B2
:1022E000069001284CF6F230A6F801701CD0707BE5
:1022F000012807D1A9F12000F080F17A012916D038
:1023000020E000BF31784CF6F23005290CD805FAF0
:1023100001F0810710D110F0140F07BF75704CF653
:10232000F230A9F13000F080F17A01290AD1F08071
:10233000317B012921D02DE0A9F11000F080F17A44
:102340000129F4D0B17B012906D100EA0B00F0800D
:10235000317B012911D01DE0317805290AD805FA11
:1023600001F111F00C0F0DD111F0120F0DD002215F
:10237000717000BF317B01290CD100EA0900F080A7
:1023800026E000BF4CF6B2310840F0807770317B18
:102390000129F2D0F17B012904D100EA0A00F08082
:1023A00016E000BF3178052912D805FA01F111F0C5
:1023B000050F0BD111F00A0F12BF00EA09004CF60D
:1023C000F2210840F080777002E000BF03217170B5
:1023D000308181B24420A6F80D70F773778137738E
:1023E000FFF7C6F9344644F8107F34F80C1C01207E
:1023F000C4F81770C4E90177C4E903776761FFF790
:1024000071FD4FF47A70FEF779F801202146FDF74F
:10241000F5FF02280AD001280CD0002804BF7773EA
:10242000B772707803280CD922E000BFB0787573BA
:1024300002E000BFB078B5720130B0707078032848
:1024400016D8DFE800F00305090D00BF31890CE064
:10245000308943F2DD7106E0308943F27D7102E09C
:10246000308943F2FD51014031814420FFF780F96A
:10247000344644F8107F34F80C1C0220C4F817705E
:10248000C4E90177C4E903776761FFF72BFD4FF4D7
:102490007A70FEF733F802202146FDF7AFFF0228DD
:1024A0000AD001280CD0002804BFB773F7727078E7
:1024B00003280CD90FE000BFB078B57302E000BF6D
:1024C000B078F5720130B0707078032803D8F188C5
:1024D0004420FFF74DF9344644F8107F34F80C1CC3
:1024E0000320C4F81770C4E90177C4E90377676172
:1024F000FFF7F8FC4FF47A70FEF700F8032021464E
:10250000FDF77CFF022809D001280BD0002804BF6A
:10251000F7733773707803280BD90EE0B078F57332
:1025200002E000BFB07835730130B07070780328D6
:1025300003D831894420FFF71BF9B07801287FF4D4
:10254000C6AE717BB27A0139013AB1FA81F1B2FAC1
:1025500082F2490952093078114301290BD104282C
:1025600009D81721C140C90705D042F2F251C0F67F
:102570000001085C3070B17BF27A0139013AB1FA9E
:1025800081F1B2FA82F249095209114301290BD1B2
:10259000052809D82D21C140C90705D042F2F751BD
:1025A000C0F60001085C3070F17B012903D0317B5B
:1025B00001297FF481AE411EC9B204293FF67CAEE9
:1025C0001D22CA40D2073FF477AE42F2FD50C0F65A
:1025D0000000405C30706FE6F1EE100A4FF6FF71BC
:1025E000C0F2C03120EA010040F04070E1EE100A74
:1025F0007047050303050501010401010400000201
:1026000002000000000000000000010203040607B1
:102610000809000000000102030400004026000831
:102620000000002018000000E801000858260008FB
:1026300018000020D8060000040200080000000076
:102640000100000010000000D8D8E4E4D2D2E1C6B6
:08265000C6E1C9C90024F40031
:04000005080001AD41
:00000001FF
